:0400000046EF3FF098
:107E8C0000014FEF3FF0016EACA2FED701C0ADFF79
:107E9C001200000E0B6E000E0A6E000E0C6E000E21
:107EAC000D6E000E076E000E086E000E096E700E41
:107EBC00D36E520E9B6E9268000E936E800E946E73
:107ECC00000E956E000E806E000E816E000E826E9E
:107EDC00010E836E000E896E000E8A6E000E8B6E84
:107EEC00010E8C6EAC84000EAF6EAC98AB8EAC8A6F
:107EFC00AC9CAB9C9D9A9D98AB88000E0F6E000EAF
:107F0C000E6E0E287F0E0F58D8B003D00E4A0F2AD3
:107F1C00F8D7000E0F6E000E0E6E0E287F0E0F5847
:107F2C00D8B003D00E4A0F2AF8D7810E8C6E0A4AAD
:107F3C000B2AF00E0B5CD8A009D0000E0C6E000EB4
:107F4C000B6E000E0A6EAB98AB88F1D79EAAEFD7DA
:107F5C00AECF0DF00C50D8A42DD00D28D8A423D022
:107F6C008C9E000E0F6E000E0E6E200E0E5C4E0ED2
:107F7C000F58D8B003D00E4A0F2AF7D78C8E000EAC
:107F8C000F6E000E0E6E200E0E5C4E0E0F58D8B0FB
:107F9C0003D00E4A0F2AF7D7540E49EC3FF0320E9D
:107FAC0049EC3FF022D0800E0D18D8B41ED00DC075
:107FBC008CFF0AD00C04D8A409D00DC08AFF8C9079
:107FCC008C908C908C908C800C2A0FD0020E0C18FC
:107FDC00D8A40BD00DC08AFF030E8C128C908C9001
:107FEC008C908C908C80000E0C6E000E0B6E000E24
:047FFC000A6E9DD795
:020000040020DA
:08000000FFFFFFFFFFFFFFFF00
:020000040030CA
:0E000000020E1F1EFF0381FF0FC00FE00F4016
:00000001FF
